:04000000FEEFFFF020
:1020000000484F4C4120414D49474F53200A0D0095
:0120100000CF
:10201200000E096E000E0A6E000E0B6E000E0C6EA4
:102022000550061007100810D8B41AEF10F01CEF74
:1020320010F052EF10F0010E0D6E26EF10F0D89056
:1020420005360636073608360D2A08AE2BEF10F095
:102052002DEF10F020EF10F0D89009360A360B362B
:102062000C360550015C06500258075003580850C0
:102072000458D8A03FEF10F041EF10F04AEF10F0F3
:102082000550015E0650025A0750035A0850045A7E
:102092000980D89008320732063205320D2E2DEF14
:1020A20010F009C001F00AC002F00BC003F00CC02E
:1020B20004F01200FE0EC36E130E3A01086F090EF1
:1020C200E56FB00E3D01F26F800EF36F400E016EB0
:1020D200420E026E0F0E036E000E046E0EC005F06D
:1020E2000FC006F010C007F011C008F009EC10F0A4
:1020F200030E81EF10F0D890043203320232013223
:10210200E82E7CEF10F0FF0E012601503D01F56F25
:10211200F66B1200800E0E6E250E0F6E000E106E04
:10212200000E116E5BEC10F0010E026E200E036EBB
:10213200AAEC10F0020E136E450E126EAA0EE82ED5
:10214200FED7122EFCD7132EFAD795EF10F0FEEF22
:10215200FFF0B8EF10F060000BF0F6FF60000FF038
:10216200F7FF0800F550C9EC10F0024A032A60009C
:102172000BF0F6FF60000FF0F7FF0800F5500009C2
:10218200D8A4C6EF10F0C8EF10F0ACEF10F01200B8
:10219200016E3901A3A9D0EF10F0D2EF10F0CAEF0F
:1021A20010F0600007F0EAFD1200000EF86E200E3B
:0821B200F76E00018BEF10F045
:020000040001F9
:04FFFC00D6EF10F03C
:020000040020DA
:10000000FF0FFF0FFF0FFF0FFF0FFF0FFF0FFF0F80
:020000040030CA
:0A000000ECFFFFFFFFFFFFFFFFFF13
:00000001FF
